:020000040000fa
:080000001011040000000000d3
:020000040000fa
:10222000efc420000eff27000e0188000000000010
:10223000000020000000e000020032000001200049
:10224000200288000c000700a0d823000100200015
:102250000f000700000020000000e0000200320034
:102260000000020000000000703e020000000000bc
:102270000040da000000fe00a00720000000e0009f
:1022800002003200002020009001880000000600bb
:10229000a1028800800078000000eb001a003700df
:1022a000e280400054a0b4009101ba00e2804000f6
:1022b00054a0b4009102ba00e280400054a0b400df
:1022c0000002eb00472bde00f507b200a6018800f4
:1022d000602ce10008003a000049eb000201e80030
:1022e000020039003420ec0002f0a0008301e90074
:1022f000f9ff3e00040037006128e10001003200d0
:102300000082eb00040007001101ba000200e000a7
:10231000e3ff3a000000060004d0a300e20f4900ea
:102320001c003900810278003549ba000201e8003a
:10233000020039003420ec0002f0a0008301e90023
:102340000f0032002549ba000201e80002003900fe
:102350003420ec0002f0a0008301e9000800320004
:102360000400e0000600320015c9ba000201e800ce
:10237000020039003420ec0002f0a0008301e900e3
:102380008180e80054a0b4000300e000e2ff3a00be
:10239000000006009102ba00055978008301e900a7
:1023a000f7ff3200c82ade00055978008301e900f2
:1023b000f3ff32000400e000f1ff320011d9ba004f
:1023c000eeff37000c39040000000000c83804009c
:1023d000000000002e39040000000000fa2504006f
:1023e000000000003c260400000000001e2604003f
:1023f000000000002c270400000000006e170400fd
:10240000000000001a1c040000000000000004008e
:10241000000000000a00fa0011002000b1bf9f0078
:10242000c0bf9f006a805700870807004fb8970019
:102430000080fa00000006000a00fa0051002000a7
:10244000b1bf9f00c0bf9f006a805700800807008f
:102450005fb897000080fa0000000600889fbe0069
:1024600080047800606280000000e00004003a0010
:102470000e0007000084eb000000e00008003500bb
:10248000686280000900e000050032000900440095
:10249000060007000000e00001003d000084eb00a2
:1024a000080078004f04be0000000600800078009d
:1024b0000100e00003003a00000020006062880094
:1024c000000005000080eb0002002000828f500019
:1024d00002003e00616288000000eb000000060080
:1024e00003f0a200889fbe008a9fbe008c1f780068
:1024f000f7000700fe0033006450e1004f00320097
:102500006420e1005200320003826c0007003b00af
:102510000905d0000306d000820f54000c065d00b0
:1025200002003900020032008901780003067800b9
:102530008582550004003d000003fd008103fd007d
:102540008502ea008b854200840f720002003b0086
:1025500060001000e08018006011b8000005eb007a
:102560007a28e1000a00390006007800c75ddd0026
:10257000f707b200878075002d0037008281710057
:102580000a017800610560008180d1000080d300dd
:102590008502e900f9ff3b000604400087844800fb
:1025a00002003b0060041400e0841c000988a300c2
:1025b000070032008a81710082817100610164002c
:1025c0008904d1000884d3008b05e8001700370088
:1025d0000978a30013003a000b00e0001300340058
:1025e0008b05e9000804440089844c000a44740007
:1025f0000978a3000d003a000b00e000070034004a
:102600008b05e9000804440089844c0001003a006d
:102610000b0020000978a300f7ff32000001eb0057
:1026200002003700828171000a0178006d00070006
:102630000cf0a70001f0a000b60037006420e10014
:1026400002003a00838f6c00b60033000801be0020
:102650000200be00af003700889fbe008a9fbe0008
:102660008c1f78009a000700a100330003866c00dd
:102670006450e1002e0032006420e100330032009b
:102680006150e1002f0032006120e1003100320092
:1026900085855500eb07b0000900200008042000e4
:1026a000050037000804440089844c000a0031000a
:1026b0000603430087834b000001530081815b00c8
:1026c000f8ff33000203be000800a0000804440025
:1026d00089844c00f6ff3900c639dd0083017300a0
:1026e00001003200130020008904d1000884d300c7
:1026f0000998a300050032000800a7000300a0000d
:102700008904d1000884d3008b05e8008904d10036
:102710000884d3000001eb000281d20031000700e1
:1027200001f0a1000cf0a70001f0a0007900370033
:102730006420e1007b0032000801be000200be0000
:10274000f7ff37006120e100760032006000b8003a
:10275000f3ff37000000200001f82700f0ff3700ea
:1027600014002000a6003700f4ff2f00a40037005b
:102770000001be00410007000470a70003f0a100a3
:1027800003f8a30013003a006509b10010003200fd
:10279000090035006928e100020035000100280029
:1027a0000000050000004000818048008502e9002b
:1027b000fcff3a0000000600f88f420005003500db
:1027c0008100d1000080d3008502e800fcff3a00c0
:1027d000000006008000eb00000005006011b8005a
:1027e000a200370081002000618055000b003d00f1
:1027f0000b00200061fe2f000100e1001d003400ed
:1028000082817100610164008904d1000884d300d1
:102810000000e800faff3a00710020006100640047
:1028200003007000020060000900320061044400ef
:10283000e0844c000988a500050032008b05e80003
:102840006808e10002003a008904d1000884d3003e
:10285000f20f20000258e10005003d00c75ddd00d9
:10286000f907b200898075000800780000000600b2
:102870000bf827008b00780000000500c70ade0077
:10288000f107b200f50fb20008003200e1cf4200bc
:10289000020032000170a00024000500810f7000ca
:1028a000010032000408050044000500810f70009b
:1028b00002003a00140005008502e9000000400013
:1028c00081c04800fcff3b000170a000240005000f
:1028d0000004be00e9ff07000003be000405be00bf
:1028e0000200be00e5ff0700844f750000000600ef
:1028f0000200be006450e100050036006420e100e3
:10290000020036000968a30001003a000800be007a
:102910000160a0004f0678004f05be004f04be00c6
:1029200000000600f0ff2f00f1ff2700f9ff37003d
:10293000889fbe008a9fbe008c1f7800e4ff0700be
:10294000ebff330003866c006450e100240032008a
:102950006420e100270032006150e10022003200d3
:102960006120e100210032008b854200eb07b100bd
:102970000134b800003ab8000804420089844a00d3
:10298000013ab8000030b8008880400009014a00d0
:10299000040033000000400081804800020149002b
:1029a0008b05e900c909dd008301700001003200d8
:1029b00013002000c814de004814dd004709de00c3
:1029c0001200b200c808de000884700085ff07000e
:1029d00001f0a1000cf0a70001f0a000cdff37002e
:1029e0006120e100cfff32000801be000200be00fe
:1029f000f7ff37006150e100fcff3a00c9ff3700e4
:102a0000889fbe008a9fbe00841f7800b0ff070029
:102a10004f00780011003300f0ff2f00838f6c000f
:102a200006003b00040565000a00a7000800370007
:102a300009f0a6001000200008003700820f5400a3
:102a4000838f5c00030039001000200001003e006d
:102a50000000200009f0a7000000ea004f05be00ba
:102a60004f04be000000e00000000600889fbe008a
:102a70008a9fbe000082700004027100048271000f
:102a8000260032000004be000200be006011b80043
:102a90006b092000950220000182cf000a00390056
:102aa0000541b1000082cf00070039000541b100a7
:102ab0000982cf00040039000541b1000882cf002f
:102ac000010039000541b1000542520012003200f8
:102ad0000a003b0082817100610164008100d10025
:102ae0000080d3008984d3000884d3008b05e800dc
:102af0000442e800f7ff3a000700370008044400ea
:102b000089844c0000004800818048008b05e90062
:102b10000442e900f9ff3a0032ff07004f05be000a
:102b20004f04be000000060001b020002f00070087
:102b3000800078000080eb000100e0000400350018
:102b400001b02000a0002000020007004f80de003e
:102b500000000600889fbe008a1f78000004be00a7
:102b6000c900900069009000808f50000500390076
:102b700009007800910007008080eb000000e00071
:102b80001600350008457800490090000858780084
:102b9000c00498001900780000b8a30004003a00af
:102ba00000a8a30007003200ea4f540005003a00d5
:102bb000090078002a0307008080eb000000e00095
:102bc00006003a0000c02000190060000200320038
:102bd00049009000e00498008a80fb000100780022
:102be0004f0578004f04be0000000600889fbe001d
:102bf0008a9fbe008c1f7800800478000104780052
:102c00002f003700c800900068009000808f5000af
:102c10000400390008007800680007000000e000a8
:102c20003a00350000402000180060000a00320021
:102c3000a10020000900780050000700000678007d
:102c40000c00e00004003200618514000a05460013
:102c5000cfd5de0004003700090078003b000700f4
:102c60000005be000006eb004800900068019000df
:102c700000015100cf91de008a0f51008b8f590067
:102c8000020031000205be000006eb000a01be0092
:102c90008900780022000700480090000a004000e8
:102ca000400498000c00e0000400320008007800a6
:102cb000eb0207000000e00014003a008a844400a0
:102cc0001904e000cfff3a000080200018006000e7
:102cd0000600320008007800e1020700800078005a
:102ce0000080eb000100e00009003a0001c0200074
:102cf000988060000000eb00050032004800900062
:102d0000600498000000eb00010037000080eb0039
:102d10004f0678004f05be004f04be0000000600bd
:102d20000202be008001eb000400370061f0790070
:102d300061025200e0825a008301e800e00f520075
:102d4000e08f5a00f9ff3a0000000600800078008a
:102d50000000eb00610ab8006101b8000403410003
:102d60000000e800644179000204e000f9ff3a0045
:102d700001005300cf80de0000000600889fbe00e7
:102d80006011b8006103b8006112b8000404430088
:102d900085844b0066427a00814f520001003a0060
:102da000880178000201e8000404e000f5ff3a0021
:102db000030078004f04be0000000600889fbe009c
:102dc0008a1f780000047800c80090006801900015
:102dd0000000eb00828f50003d00390018007800a1
:102de0002200290002016000e20f510007003200ba
:102df000012024000000e00001003d00012020002f
:102e0000008c70000080eb003100370002002600cb
:102e100002006000820f500009003a003800900064
:102e2000808f500006003900080078008c020700ef
:102e3000800078000080eb000100e00024003a00f0
:102e40001805780000c020000000650019003a0055
:102e5000a80490006002200008004000808f540009
:102e600014003a000020200001002000ac030700fd
:102e7000200498000000e00005003a0029049800b2
:102e8000490498008904e8003904980008003700d4
:102e90000a60a0000a0c780040049800012020007d
:102ea0008080400031049800400c9800500c98003d
:102eb0001502070028009000500498003800900088
:102ec0006004980000002600180c70000000eb0061
:102ed0004f0578004f04be0000000600881f7800f0
:102ee0008a9fbe0000047800010078000205be0041
:102ef000880078000202be001200200003002000bb
:102f0000e10207008a0f50008b8f58000100320049
:102f10000004eb00080078004f05be004f04780065
:102f2000000006000000fa00e88157004fb9970042
:102f300001b02000e0762100020007000080fa00c6
:102f4000000006006200fa00889fbe008a9fbe0053
:102f5000000578008104780002047800830078007e
:102f600060f92f000f004000900207008a979f0031
:102f700099979f000000eb00a09f9f001885fb0021
:102f80008a04fb000a05ea004f55de0050022000cb
:102f9000808f54000e003200e10f55000c003a0003
:102fa0001200200003002000880078001f90970086
:102fb0000f9297000400010090979f000000e0002e
:102fc0009d0032002f9897000000e800a09f9f000e
:102fd0000a04440050022000808f54000400320094
:102fe0000900e000e5ff3a002f98970093003700b2
:102ff0000000eb00809f9f00f0979f00e0979f00ec
:10300000d0979f00c0979f00b0979f00c09f9f00e0
:103010008004eb0008003700c1c22000810050008e
:103020008100d00002c22000828040004f989700ab
:1030300011007000c09f9f006141b8006148b80056
:1030400002054000e24578008b00fb00c0c2200072
:103050003e0207008904e8000000e000eeff3a00ad
:10306000a1c2b30081cf55000e003a00bf8897007f
:103070000180e900b08f9f0010007800b09f9f0092
:103080000000e00005003d000000ea00b09f9f0046
:103090004f9897000020a000c09f9f000a04e800fe
:1030a00012003700b09f9f006000b8000600370094
:1030b000f3ff2700830f5000020032006a02b900bc
:1030c000040041008100e8006152b8006109b800c5
:1030d00004044100644179000201fb000203b100d5
:1030e000e90f5100f2ff3600b09f9f00e0c2b3002d
:1030f000984f1000030032000080eb00909f9f006b
:103100002100370008007800a1c2b300d0cf100022
:1031100007003a003f8997008280e900b18f9f0045
:1031200091007800919f9f000004e800160037008e
:103130000000eb00909f9f008000eb00060037002e
:10314000f3ff2700830f5000020032006a02b9002b
:10315000040041008100e8000802e8008002eb0062
:103160006109b8000203420083834a006441790088
:103170000201fb000203b100e90f5100f0ff36002d
:10318000909f9f0006047800984478008900fb0017
:1031900080c12000ed0107000000e00002003200c5
:1031a0000804e800010037008044eb00a97f9f007d
:1031b00080c6b30080cf540004003a0098cf1400ba
:1031c0000a003a006640500006003700c0c6b3004f
:1031d00080cf540005003a0098cf140003003a0055
:1031e00065404000a07f9f000804e8001801fb0034
:1031f000c3fb2f008f81410061f92f008f804000b9
:1032000080f92f000f004000100007000000e000d0
:1032100009003a00c1fb2f008f80400080f92f0089
:103220000f004000490407000000e00002003500e4
:103230000804e80051ff37000080eb004f05be0096
:103240004f04be000080fa0000000600889fbe0008
:103250008a1f780000047800e0c6b300804f510058
:10326000c300320015003c006b405000804f5100fd
:10327000240032000a003c0070405000804f510092
:10328000fc00320065404000804f51006800320071
:1032900050c2b300804f51000d013a0009013700c0
:1032a00040c6b300804f51001b0032006540400013
:1032b000804f510006013a001700370030c7b300b5
:1032c000804f5100eb00320007003c00644050008a
:1032d000804f5100560032000040e800804f5100fe
:1032e000fb003a00d500370050c7b300804f5100b3
:1032f0004f00320063404000804f5100f4003a001c
:103300004b0037001181e9008208780078009000b6
:1033100012417800ec00370028609000c4c6b3006a
:10332000844f500007003a001102780064005200f8
:10333000800878001002be004fabde0086037800e4
:103340001100370014c7b300844f5000030032004f
:10335000a4c6b300844f500006003a001102780062
:1033600068005200800878003002be002003be00d2
:10337000050037001180e90080087800100278000d
:10338000cfa2de00612bb900049cbe000694be00f3
:103390002860900081c6b300814f50000d003200bc
:1033a00021c6b300814f500004003a000402fb0024
:1033b000cfa2de00612bb9000800370041c7b3007f
:1033c000814f500003003200e6c04000814f5000a2
:1033d00004003a00cfa2de00612bb900049cbe00bd
:1033e0000694be003802be002803be00780090009c
:1033f000d1c2b300e00f5200e08f5a00e00f5b0033
:10340000e08f5b0008003500881090000118a300d1
:1034100002003200b1c2b300030037000108a3006c
:103420004e00320001c2b3008171780049003700bc
:1034300028609000c4c6b300844f500006003a00d4
:103440001102780064005200800878001002be006b
:103450006033b8001100370014c7b300844f500028
:1034600003003200a4c6b300844f500006003a00a7
:103470001102780068005200800878003002be0017
:103480002003be00050037001180e90080087800a5
:10349000100278008002eb006033b800049cbe008c
:1034a0000694be002860900081c6b300814f500092
:1034b00003003a008002eb006033b8000e003700d2
:1034c00021c6b300814f500004003a000482fb0083
:1034d0008002eb006033b8000700370041c7b3003b
:1034e000814f500003003200e6c04000814f500081
:1034f00003003a006033b800049cbe000694be008e
:10350000081090000038a300140032003802be00fa
:103510002803be00e00f5200e08f5a00e00f5b006e
:10352000e08f5b000d00320080c7b300804f510078
:103530000300320080c5b300804f510007003a00fd
:103540007800900001c3b300817178000000e800aa
:10355000827178000000e800700498007800900004
:103560008081410063049800824078003e0037006b
:1035700028619000c3c6b3001180e900834f510059
:10358000220032000a003c00e4c15100834f510088
:103590002500320083c1e800834f51001300320040
:1035a000e8c15100834f51001e003a000a00370065
:1035b00043c7b300834f51001b003200e6c14100f6
:1035c000834f510011003200e9c15100834f510077
:1035d00014003a00050037008008780010007800d9
:1035e000485c900008487800410037008008780067
:1035f00010007800680a9000cfa2de00612bb900ad
:103600000498be000690be0039003700800878009c
:103610001000780068099000cf91de000288be009b
:10362000330037001180e90080087800100078002e
:10363000680c9000080878002d0037001180e90020
:103640008008780010027800cfa2de00612bb9005c
:10365000049cbe000694be0078009000808141006a
:103660006304980081c7b3000800780007020700d0
:103670001f0037001180e9008008780010057800ed
:103680006a049800d80c90000900e00004003d0096
:103690000a007800adfd07008004780007003700bd
:1036a0006149b9008000eb000a007800d3010700ef
:1036b0000000e000010032008a045000190c98005c
:1036c0000b00370078009000827178000600370008
:1036d00078009000808141000204e00001003a007f
:1036e00052c2b300824978000000e80070049800dc
:1036f0000000eb004f0578004f04be0000000600fc
:10370000a0c121009d003700881f7800a8c42000b8
:103710001804e00003003a00f9ff070020c0b300de
:10372000004c78004f04780000000600889fbe001f
:103730000004780008007800490007008004780041
:1037400000042000180060000200320028009000f1
:10375000980007000000eb0020049800384090001b
:103760000004e000050035000000fb0029fb070015
:103770000000e000010032008084eb00181090008f
:103780000000e000080032002bfb07000000e00012
:10379000010032008084eb001810900085000700c3
:1037a0000000eb00101498000008200018006000d2
:1037b0000f003200e1b420000000eb00d10f140034
:1037c00005003a000000400001b5200000804000e4
:1037d0000008eb00030037000000e800e80f50008d
:1037e000f6ff3a0008007800720007000e0037006c
:1037f000000c780000c0eb0030449800600220000c
:1038000008004000200498004004980050049800ec
:10381000400c980060049800500c980070049800c8
:1038200076004400000c9800090078004f04be00a8
:1038300000000600889fbe0008b62000f004540077
:10384000480078000000e00001003200b7ff0700e8
:10385000890f5400faff3a004f04be000000060032
:10386000889fbe008a1f7800000478000800e000ee
:103870000d003a00e8b42000700544008004eb001d
:10388000580078000000e00004003200f4ff070058
:103890000000e00001003d008084eb008a0f54002e
:1038a000f7ff3a00250037000000220018006000f2
:1038b0008004eb0021003200a80490000f003700c4
:1038c00009015100384090000000fb008900780099
:1038d000740607000000e00007003c00280090008c
:1038e0004004980060049800500c98001890a000c4
:1038f0008084eb0011003700808444004801900070
:10390000828f5400eeff3900280090004004980098
:103910009800780002c020000281600001003a0097
:103920003800900001e8a300020032006004980013
:1039300001003700500c98008004eb00090078006b
:103940004f0578004f04be0000000600020037005b
:103950000304e00006003200000178000200780055
:10396000b041780081cf5100f9ff3a0001003700e3
:103970000001eb00020078000000060001002000ba
:103980000100e00008003200010080000100e000ba
:10399000050032008100e9000100880081804000bc
:1039a0000200800000b178000000060001087800e5
:1039b000000006000000e000320032004002be00bd
:1039c000e50f5200e08f5a002e0036000408a300d5
:1039d0002c003a00416280000100e0000200320049
:1039e000810f5000040031002100980040628800df
:1039f0001700370082007800210190000200e000eb
:103a000002003200800f5100faff39001103be009e
:103a100086814000830f50001a003900808f5100ca
:103a200004003a008418430085904b0001007800a0
:103a3000070037000200e0000300320004024000eb
:103a4000840f51000f00390022009800a000980058
:103a5000a00090000100e0000a00320010014000c8
:103a6000828f500007003a0062c420000009eb007a
:103a70001001be003118410021904900a1009000c2
:103a80002100980000000600ea874700889fbe00da
:103a90008a9fbe008c9fbe008e1f780000067800b3
:103aa0000204be000405be00010778000400be0049
:103ab0000b030700d0b79f00e1b79f00e00f500055
:103ac000e08f580052003200e00f5400e08f5c009d
:103ad00050003200fcb79f000006be00ce009000f0
:103ae0006e009000808f5000040039000e007800b6
:103af000b2fc07000000e000330035000040200069
:103b00001e0060000c0032000c01be00a10020006d
:103b10007fb09700b9000700000278000400e000c1
:103b200008003200ffb19700618511000a054200cc
:103b3000cfd5de00040037000c05be000002eb000c
:103b4000010037000c05be004e0090006e01900091
:103b500000015100cf91de008a0f51008b8f590078
:103b6000020031000205be000002eb000a01be00a7
:103b7000ffb0970084bf9f0069fc07000a0656004b
:103b80008b865e004e0090000a00400040079800bf
:103b90000fba97000400e000040032000e00780025
:103ba0002fff07000000e00007003a00e00f56007a
:103bb000e08f5e00040032007fb097000a004000f2
:103bc000f0b79f00c5ff3700008020001e00600096
:103bd000020032000e00780021ff070000c0200024
:103be0001e00600002003200ce00900061079800c5
:103bf0005fb19700efb197000c0051008d80590024
:103c00000801be00a30207000005be000100370046
:103c10006055b8000a00be004f0778004f06be008e
:103c20004f05be004f04be00af00b100000006000b
:103c3000889fbe008a9fbe000004be0031628000e3
:103c40000100e00002003200010078000f003700a0
:103c50004162800080c4200005003700b10f54008d
:103c6000a18f5c002b00360064804000a100900012
:103c70000100e000f9ff3a0012003700b20f5400d3
:103c8000a28f5c0023003600640041001001780020
:103c90000200e000f9ff3a00110178004162800063
:103ca00080c4200005003700b10f5400a18f5c00d4
:103cb0001800360064804000a1009000828f500000
:103cc000f9ff3a001a6280002b628000880f5500cd
:103cd000898f5d00010031000805be000a00be00aa
:103ce0005e0007000000e00006003a00880f550063
:103cf000898f5d00060032008b05d1000a85d30054
:103d0000f2ff37000a98be002aff0700cbff3700fa
:103d10000000eb004f05be004f04be00000006008f
:103d2000889fbe000002be0065004000e0804800a1
:103d3000000378000600a1008101780006017800e8
:103d40000204be008000eb00840f5400858f5c00ed
:103d500027003600e50f5400e08f5c0002003e00b3
:103d600068002000090020000800be00b0ff070026
:103d70008000eb000000e0001d00320090007800a1
:103d8000a4ff2f00f5ff2f0031014200a1814a005e
:103d9000880f5100898f590003003100a102900063
:103da0000508780008003700088140000208780004
:103db000a10190002301980010017800311914002e
:103dc00021911c008888be00100178000000eb00e3
:103dd0000200e00004003200a20190000300e000b5
:103de000010032006400410030628800e48040003d
:103df000010078004f04be0000000600889fbe004e
:103e00008a9fbe000202be008001eb000600370060
:103e10008301e80066417c00814f51000b003200b5
:103e200061025200e0825a006103b800611cb800d0
:103e30000805430089854b00e00f5200e08f5a00cf
:103e4000f3ff3a000000eb00010037000a007800a1
:103e50004f05be004f04be00000006000001be007a
:103e60008000eb000200e000060034000200780051
:103e70007af9070080007800e18f400001003a00e5
:103e80008000eb000100780000000600fc8747007e
:103e9000889fbe008a9fbe008c9fbe008e1f780048
:103ea0000006780080c5b30080cf50000a003200c1
:103eb0007740400080cf50000a0032006940400047
:103ec00080cf50000b00320070c0200080bf9f00e8
:103ed000ae0020000a00370062bf200082bf9f00b2
:103ee0000600370073c0200083bf9f008e002000b3
:103ef0000300370074c0200084bf9f000e01200023
:103f00003c02be002c03be000605be000404be0039
:103f100040c6b30080cf500003003200654040002f
:103f200080cf50000b003a00e00f5200e08f5a00a3
:103f3000e00f5b00e08f5b0006003d006000b80012
:103f40006011b8000404500085845800060559002b
:103f500087855900e80f5700040032004000200018
:103f6000f00f570038003a00010037003000200001
:103f7000e00f5400e08f5c00e00f5d00e08f5d001b
:103f800004003a00dc0890008d0120000100e000f0
:103f9000060032008e00e900888060008fba97002a
:103fa000e5c07800f1ef9f007d01200080007800df
:103fb0008100e900050033008b05d1000a85d3009c
:103fc0008984d3000884d300f9ff3700089ebe001f
:103fd0000a96be00120037008d06e9008e00e90047
:103fe000848060000fb99700e2c1780082fd2f0045
:103ff0000f01410003f17e00800078008100e9009c
:10400000050033008783d1000683d3008582d30067
:104010000482d300f9ff3700049ebe000696be005e
:104020003c02be002c03be00e00f5200e08f5a009d
:10403000e00f5b00e08f5b008b0034000d00e000c0
:10404000e5ff3c00880037002c60900081c6b3007b
:10405000814f50000b00320006003c000004e000dd
:1040600008003200e6c05000814f50004e003a0078
:1040700004003700c1c6b300814f50004a003a0027
:10408000210037000800e00004003a005c089000be
:104090008d0120000000e000060032001100090040
:1040a0000e84d8000fb99700e2c07800f1ef9f00ae
:1040b0007d012000110009000e84d8000a0037009d
:1040c000110009000e04d8008d06e9000e81b90028
:1040d000020454008fb8970061417c0081fd2f00dd
:1040e0008f80400082f07e00000478000800e0002d
:1040f000020032000d00e000f1ff3c00cfc4de0002
:10410000614db90025003700e00f5400e08f5c00de
:1041100004003a005c0890008d0120000000e000df
:10412000070032006171b9000800be006901070094
:104130008fb99700e3417800f3ef9f007d012000e5
:104140006171b9000800be00520107000b00370082
:104150006171b9000800be003f0107008d06e9004b
:1041600000f1b900020454000fba9700e4427c0049
:1041700084fd2f000f02420005f27e000004be0005
:10418000e00f5000e08f5800020032000d00e00008
:10419000efff3c004fcdde008a057800089ebe0090
:1041a0000a96be0030003700e00f5400e08f5c003c
:1041b000e00f5d00e08f5d0004003a005c089000b5
:1041c0008d0120000000e000090032006172b9009a
:1041d000612bb9000800be000a01be00e60107001d
:1041e0000fba970064427800f4ef9f007d01200031
:1041f0006172b900612bb9000800be000a01be005f
:10420000d60107000d0037006172b900612bb900bb
:104210000800be000a01be00db0107008d06e900b0
:1042200000f2b900040454008fba970065427c0084
:1042300085fd2f008f82420084f27e00009ebe002a
:104240000296be003c04be002c05be00e00f5400e8
:10425000e08f5c00e00f5d00e08f5d000200340045
:104260000d00e000e8ff3c00e80f570010003a00a6
:104270000c1090000038a3000d003200f78f56009c
:1042800006003e0085fd2f008f824200e5c07e00c3
:1042900000c3b30080cf5000050032008d06e90056
:1042a00002c3b30081fd2f008f80400082f07e00aa
:1042b000f8801600110e98006c0090006109b9009a
:1042c00084fd2f000f0242008d00420094fa070087
:1042d0001c089000dc089000810f500006003d0093
:1042e00000805000000e98000c1090000040a100cb
:1042f000001698000f0037000100e0000d003d009f
:104300008c109000f4806000f08f500009003a009b
:104310007c099000fc009000810051000c09900085
:1043200082805000008050004240a900010034000b
:10433000000e98004f0778004f06be004f05be00e4
:104340004f04be00cf01b100000006000400fa00d7
:10435000889fbe008a9fbe008c1f780000047800f2
:1043600001067800f80d90007800900080855500d7
:104370000808900080855500180890008085550039
:1043800028089000808555003808900080855500e9
:1043900048089000808555000002220090bf9f00d1
:1043a00000032300a0bf9f00081090000028a30076
:1043b00015003a000b00e000130034000b057800f4
:1043c0008a047800e20f5500010036002900200021
:1043d0006149b90048029000ee80570058009000f3
:1043e00004000100500498000000e0008f0032003b
:1043f0006808900009004000600c9800090555000d
:104400004240a900eeff3c00780090000000e00070
:104410000d0034006101b900480290008c00780062
:104420005800900004000100500498008080eb00c8
:104430000000e0007e003200e80890007800900064
:1044400000804000600c9800880c90000900e0009b
:104450001100340009057800e28f54000100360095
:104460002a0020006151b90048029000ec805700fa
:104470005800900004000100500498000000e00083
:104480006a003200680890000a004000600c980042
:104490008a845400edff3700180890000000e00007
:1044a0000d0034006101b90048029000e80090005e
:1044b0005800900004000100500498008080eb0038
:1044c0000000e0005a003200e80890001808900050
:1044d00000804000600c9800a80c90000900e000eb
:1044e0001100340009057800e28f54000100360005
:1044f0002a0020006151b90048029000ec8057006a
:104500005800900004000100500498000000e000f2
:1045100046003200680890000a004000600c9800d5
:104520008a845400edff3700380890000000e00056
:104530000f0034006101b90018089000e8009000f5
:104540008080400048029000580090000400010064
:10455000500498008080eb000000e000340032003e
:10456000e80890003808900000804000600c980037
:10457000c80c90000900e000110034000905780023
:10458000e28f5400010036002a0020006151b9007a
:1045900048029000ec805700580090000400010091
:1045a000500498000000e0002000320068089000ed
:1045b0000a004000600c98008a845400edff370028
:1045c000081090008000eb000028a30018003200c3
:1045d0000b00e000160034008b0478000905780019
:1045e000e28f5400010036002a0020006151b9001a
:1045f00048029000ee80570058009000040001002f
:10460000500498000000e0000800320068089000a4
:104610000a004000600c98008a8454004240a900bf
:10462000eeff3c008000eb00010037008080eb00d3
:10463000010078004f0678004f05be004f04be0011
:104640000080fa000000060000c0da00000006004a
:1046500000c0da0000000600839f68000100e0004f
:1046600002003d0060001000e08018000300e00040
:1046700002003d0060011100e08119000500070003
:104680004f00e00002003b0060001000e0801800d6
:10469000000006006022b800060220000000d000e2
:1046a0008180d2000482d2008582d2000000a00066
:1046b0000202520083825a000300310002024200cb
:1046c00083824a000000a1000603e900f3ff3a00dc
:1046d00000000600efff07000400be000000060017
:1046e000020ab900001bb9000200b80081004200b4
:1046f0008100430000000600889fbe008a9fbe0024
:1047000030044200b0844a0030054b0090854b00d5
:104710006000b1000898be000a90be000440e100ad
:1047200005c8e10006d0e10007d8e1000200310031
:10473000680040001008e8004f05be004f04be00ae
:1047400000000600889fbe008a9fbe003004be00a5
:104750002005be000418540005985c0006185d0092
:1047600007985d00110020000440e10005c8e10049
:1047700006d0e10007d8e100010039008000eb001d
:10478000108810004f05be004f04be000000060058
:104790001200fa00889fbe008a9fbe008c9fbe0058
:1047a000e0b79f00f1b79f0082bf9f0093bf9f00bb
:1047b0000605be000404be000000eb00d0b79f0059
:1047c000c0b79f00b0b79f00a0b79f0090b79f00f1
:1047d0000006eb005fb19700cfb097008201410067
:1047e0003fb097000200e00004003d0037000700e2
:1047f0007e805700c0ff070003003700330007002a
:104800007e805700cfff0700dfb697000d00e00065
:104810000c0035006fb29700ffb297000fbb9700f6
:104820009fbb970010002000010020006011b8001d
:10483000000272008182720002037300838373009e
:104840001b0007000c06e80001042000810f560041
:10485000e0ff3a000d00e00004003d000802be0049
:104860000a03be007e805700a3ff07005fa89700e1
:104870000000e00005003a001fb29700afb29700b9
:104880003fb39700cfb39700090007006fb09700c0
:10489000ffb097000fb997009fb997004f06be0071
:1048a0004f05be004f04be000080fa000000060065
:1048b0000100070000000600a4b79f00b5b79f00e5
:1048c000c6b79f00d7b79f00000006004f09de0063
:1048d00082817100b3b79f004f01de0081804000ec
:1048e00082807000a1b79f008fb097004f09de0053
:1048f000000040000200700090b79f007fa8970062
:104900004f01de00818040008280700081b79f00ef
:104910000d0007004f3ade00000040000400700068
:10492000f0af9f00080007000402420085824a00a1
:1049300006034b0087834b00dfff07000802be0021
:104940000a03be00000006002fb29700bfb2970016
:104950004fb39700dfb3970000000600881f780070
:1049600018002000881f780089ff07008f87e90062
:104970004f04780000000600801feb0084ff070052
:104980008f87e90000000600889fbe008a9fbe0056
:10499000e00f5000e08f5800e00f5900e08f590001
:1049a0000c003d006044b8006055b80000005400a1
:1049b00081805c0002015d0083815d0018002000a1
:1049c0001500070008003d00180007000004eb0078
:1049d000050037000004eb000f00070002003d0057
:1049e0001200070018002000dcff07000800e000ac
:1049f000060032006022b8006033b80000005200a8
:104a000081805a0002015b0083815b004f05be007c
:104a10004f04be0000000600e00f5200e08f5a0075
:104a2000e00f5b00e08f5b00000006006044b80010
:104a30006055b8000402540085825c0006035d00e6
:104a400087835d0000000600889fbe008a9fbe002d
:104a50008c1f7800e00f5000e08f5800e00f5900e5
:104a6000e08f59000d003d006044b8006055b8006b
:104a70000000540081805c0002015d0083815d00c4
:104a80001c0020000820e10009a8e1000ab0e100b4
:104a90000bb8e1000d003d00080037000006eb00f8
:104aa000e00f5200e08f5a00e00f5b00e08f5b00e8
:104ab00006003d006044b8006055b8000402540090
:104ac00085825c0006035d0087835d00aaff070006
:104ad0000c00e000060032006022b8006033b8002d
:104ae0000000520081805a0002015b0083815b005c
:104af0004f0678004f05be004f04be0000000600c0
:020000040000fa
:020000040002f8
:04aff400031c00003a
:020000040000fa
:020000040002f8
:04aff8000f890000bd
:020000040000fa
:020000040002f8
:04affc007f3e000094
:020000040000fa
:102000001011040000000000ce3e0400000000009b
:10201000ce3e040000000000ce3e040000000000a0
:10202000ce3e040000000000ce3e04000000000090
:10203000ce3e040000000000ce3e04000000000080
:10204000ce3e0400000000000e340400000000003a
:10205000ce3e040000000000ce3e04000000000060
:102060003c340400000000006a340400000000005a
:10207000ce3e040000000000ce3e04000000000040
:102080001028040000000000e22704000000000007
:10209000ce3e040000000000ce3e04000000000020
:1020a000ce3e040000000000ce3e04000000000010
:1020b000ce3e040000000000ce3e04000000000000
:1020c000ce3e040000000000ce3e040000000000f0
:1020d000ce3e040000000000ce3e040000000000e0
:1020e0009834040000000000c63404000000000022
:1020f000ce3e0400000000006c2804000000000038
:102100003e28040000000000ce3e04000000000055
:10211000ce3e040000000000ce3e0400000000009f
:10212000ce3e040000000000ce3e0400000000008f
:10213000ce3e040000000000ce3e0400000000007f
:10214000ce3e040000000000ce3e0400000000006f
:10215000ce3e040000000000ce3e0400000000005f
:10216000ce3e040000000000ce3e0400000000004f
:10217000ce3e040000000000ce3e0400000000003f
:10218000ce3e040000000000ce3e0400000000002f
:10219000ce3e040000000000ce3e0400000000001f
:1021a000ce3e040000000000ce3e0400000000000f
:1021b000ce3e040000000000c8280400000000001b
:1021c0009a28040000000000ce3e04000000000039
:1021d000ce3e040000000000ce3e040000000000df
:1021e000ce3e04000000000024290400000000008e
:1021f000f628040000000000ce3e040000000000ad
:10220000ce3e040000000000ce3e040000000000ae
:10221000ce3e040000000000ce3e0400000000009e
:020000040000fa
:1000080004100000081000000c1000001010000080
:10001800141000000c1100000c1100000c1100005d
:10002800181000001c100000201000002410000010
:100038000c110000281000002c10000030100000e7
:1000480034100000381000003c1000004010000080
:1000580044100000481000000c1100000c110000b2
:100068004c10000050100000541000005810000000
:100078005c1000000c11000060100000641000000b
:100088000c110000681000006c10000070100000d7
:1000980074100000781000007c1000008010000030
:1000a80084100000881000000c1100000c110000e2
:1000b8000c1100008c10000090100000941000003b
:1000c800981000009c100000a0100000a410000070
:1000d800a8100000ac1000000c1100000c1100006a
:1000e8000c110000b0100000b41000000c1100004a
:1000f8000c110000b8100000bc1000000c1100002a
:100108000c1100000c1100000c1100000c11000073
:100118000c1100000c110000c01000000c110000b0
:100128000c110000c4100000c8100000cc10000022
:100138000c1100000c1100000c1100000c11000043
:10014800d01000000c1100000c1100000c11000070
:100158000c110000d41000000c1100000c1100005c
:100168000c110000d8100000dc100000e0100000a6
:10017800e4100000e8100000ec100000f01000008f
:10018800f4100000f8100000fc100000001100003e
:1001980004110000081100000c1100000c110000ef
:1001a8000c1100000c1100000c1100000c110000d3
:1001b8000c1100000c1100000c1100000c110000c3
:1001c8000c1100000c1100000c1100000c110000b3
:1001d8000c1100000c1100000c1100000c110000a3
:1001e8000c1100000c1100000c1100000c11000093
:0801f8000c1100000c110000c5
:020000040000fa
:104b0000486500006c6c00006f200000576f0000cb
:104b1000726c000064210000005700006861000012
:104b20007420000069730000207900006f75000098
:104b3000722000006e6100006d6500003f200000e3
:104b400000480000656c00006c6f0000202500002c
:104b5000732100000a000000547900007065000015
:104b6000207300006f6d000065740000686900002c
:104b70006e6700002061000074200000746800006f
:104b800065200000707200006f6d000070740000fe
:104b90002e0000003e3e000020000000596f000083
:104ba000752000007479000070650000642000002a
:104bb0002725000073270000206100006e640000bc
:104bc000207400006865000020740000696d00001a
:104bd000657200002070000065720000696f0000bf
:104be000642000006973000020250000642000009c
:044bf0000a000000b7
:020000040000fa
:104bf4000400fa00000f780021479800000000002c
:104c04001e00780010009000900078000020200022
:104c1400008060000000e000f9ff3a001e00780008
:104c240020009000ae4090008180fb0001087800d5
:104c34000080fa00000006000200fa00000f78006d
:104c4400000000001e0078001000900010007800a2
:104c5400610060000000e000faff32001e007800ee
:104c64003000900010007800004078000080fa00c6
:104c7400000006000400fa00000f780021479800a5
:104c8400000000001e007800d01090001e00780084
:104c940020109000808f5000faff32001e00780030
:104ca400901090001e00780040109000008040009a
:104cb400ae409000014878001e007800401090003b
:104cc4008000e8001e0078002010900000017800a9
:104cd400110009008280d8008000fd008000780067
:104ce4001e007800411098001e00780050109000bb
:104cf4008000e8001e007800511098001e00780023
:104d0400d01090001e00780030189000808f500062
:104d1400080039001e007800100090009e00780002
:104d24009100900011017800014020008280700001
:104d3400010878000080fa00000006000400fa0070
:104d4400100798001e009000500090009e009000f4
:104d5400d1009000110178009e009000e14890007d
:104d64008180fb00130020008118dd008180ea00af
:104d740081006100010878001e009000501090002e
:104d84000000e00025003a001e0090001000900092
:104d94009e0090009100900011017800f1bf2f0057
:104da40081006100010878001d0037001e0090009a
:104db400901090001e009000301090000080400081
:104dc400104f78001e009000301090008000e80022
:104dd4001e009000201090000001780011000900ce
:104de4008280d8008000fd00800078001e009000c2
:104df400311098001e009000501090008000e900cf
:104e04001e009000511098001e0090002000900099
:104e14009e80fb00010878000100370000000000bc
:104e24001e009000100090009000780000202000e8
:104e3400008060000000e00004003a001e009000c2
:104e4400501090000000e000d8ff3a000080fa0003
:104e5400000006000400fa0010079800000000009b
:104e64001e009000201890000000e000fcff3200bb
:104e74001e009000e01090001e00900000189000aa
:104e840000804000104f78001e0090000018900031
:104e94008000e8001e00900070109000000178006f
:104ea400110009008280d8008000fd008000780095
:104eb4001e009000011898001e0090002018900019
:104ec4008000e9001e009000211898001e40780020
:104ed4000080fa00000006000200fa00000f7800cb
:104ee4001e007800500090009e007800d1009000d1
:104ef400110178009e007800f14890008180fb0049
:104f0400130020008118dd008180ea008100610027
:104f1400010878001b0037001e007800e0109000a4
:104f24001e00780010189000008040009e00780059
:104f3400b100900091007800814078000148780029
:104f44001e007800101890008000e8001e00780011
:104f54007010900000017800110009008280d800d0
:104f64008000fd00800078001e0078001118980071
:104f74001e007800201890008000e8001e007800d1
:104f8400211898001e00780010009000100078008e
:104f940061006000004078000004e0000600320078
:104fa4001e007800a01890001e0078007010900079
:104fb400808f5000d8ff3a000080fa0000000600fd
:104fc4003600f800809fbe00829fbe00849fbe0012
:104fd400869fbe003200f8003400f8001000200064
:104fe400a001880000202000900188000000fa0041
:104ff400c09b200051ff07000080fa003400f90034
:105004003200f9004f03be004f02be004f01be0044
:105014004f00be003600f900004006003600f800dc
:10502400809fbe00829fbe00849fbe00869fbe00fc
:105034003200f8003400f80010002000a0018800bd
:1050440000202000900188000000fa00c09b20008e
:10505400a1ff07000080fa003400f9003200f900d3
:105064004f03be004f02be004f01be004f00be0002
:105074003600f900004006003600f800809fbe00ac
:10508400829fbe00849fbe00869fbe003200f8004f
:105094003400f80010002000a00188000020200047
:1050a400900188000000fa00809f200023ff070081
:1050b4000080fa003400f9003200f9004f03be000a
:1050c4004f02be004f01be004f00be003600f90083
:1050d400004006003600f800809fbe00829fbe009c
:1050e400849fbe00869fbe003200f8003400f800a2
:1050f40010002000a00188000020200090018800fa
:105104000000fa00809f200073ff07000080fa006f
:105114003400f9003200f9004f03be004f02be0014
:105124004f01be004f00be003600f90000400600eb
:105134003600f800809fbe00829fbe00849fbe00a0
:10514400869fbe003200f8003400f80010002000f2
:10515400a001880000202000900188000000fa00cf
:1051640040a32000f5fe07000080fa003400f90097
:105174003200f9004f03be004f02be004f01be00d3
:105184004f00be003600f900004006003600f8006b
:10519400809fbe00829fbe00849fbe00869fbe008b
:1051a4003200f8003400f80010002000a00188004c
:1051b40000202000900188000000fa0040a3200095
:1051c40045ff07000080fa003400f9003200f900be
:1051d4004f03be004f02be004f01be004f00be0091
:1051e4003600f900004006003600f800809fbe003b
:1051f400829fbe00849fbe00869fbe003200f800de
:105204003400f80010002000a001880000202000d5
:10521400900188000000fa0000a72000c7fe0700e4
:105224000080fa003400f9003200f9004f03be0098
:105234004f02be004f01be004f00be003600f90011
:10524400004006003600f800809fbe00829fbe002a
:10525400849fbe00869fbe003200f8003400f80030
:1052640010002000a0018800002020009001880088
:105274000000fa0000a7200017ff07000080fa00d2
:105284003400f9003200f9004f03be004f02be00a3
:105294004f01be004f00be003600f900004006007a
:1052a4000800fa00100798002107980032079800b8
:1052b4001e0090000000e00025003500e10f5000c2
:1052c40003003400e20f50001100320021003700c7
:1052d4000000eb00000f7800080037002e0090005b
:1052e400904078002e0090000000e800200798000d
:1052f400004080004b0407001e0fe8009e00780069
:105304003e009000808f5000f4ff390011003700f8
:105314000000eb00000f7800080037002e0090001a
:10532400904078002e0090000000e80020079800cc
:10533400104080003b0407001e0fe8009e00780028
:105344003e009000808f5000f4ff390001003700c8
:10535400000000003e0090000080fa0000000600fb
:105364000000fa00ca070700406d2000801f780083
:105374005701200086c0b3008082eb0064c0b300f4
:105384008001eb00022f2000212f2000c0aa200062
:10539400d30807008f87e900a06d2000801f7800e4
:1053a400a70120000043eb008082eb0074c0b3002f
:1053b4008001eb00022f2000212f200020ac2000d0
:1053c400c70807008f87e90040002000801f78008d
:1053d40030002000801f780080c0b300801f780058
:1053e4000040eb00801f7800406a2000801f780096
:1053f400406a2000801f7800b0c0b300801f78008e
:10540400c0c0b300801f7800470920004608200070
:105414008522200064222000432220002222200032
:1054240001222000c09b20006b000700f08757007a
:1054340060002000801f780050002000801f78004a
:1054440080c0b300801f78000040eb00801f78000c
:10545400606a2000801f7800606a2000801f780046
:10546400e0c0b300801f7800f0c0b300801f780054
:10547400670920006608200085232000642320009b
:10548400432320002223200001232000809f2000aa
:1054940051000700f0875700d0012000801f7800da
:1054a400c0012000801f780080c0b300801f7800f6
:1054b40080c0b300801f7800a06a2000801f78009d
:1054c400206a2000801f780020c0b300801f78006d
:1054d40030c0b300801f7800e7092000e6082000f0
:1054e4008525200064252000432520002225200056
:1054f4000125200040a3200037000700f087570053
:10550400f0012000801f7800e0012000801f780057
:1055140080c0b300801f78000040eb00801f78003b
:10552400606b2000801f7800606b2000801f780073
:1055340080c0b300801f780090c0b300801f780043
:10554400e7092000e6082000852b2000642b2000ba
:10555400432b2000222b2000012b200000a7200039
:105564001d000700f08757000000eb00801f780043
:105574000000eb00801f78000000eb00801f780023
:105584000000eb00801f78000000eb00801f780013
:1055940010002000801f7800e5c4b300060020003e
:1055a400676924000002eb008001eb0022ac2000bc
:1055b400c1aa2000c09b200072000700ec8757009e
:1055c400c09b200000408800c09b20001040880041
:1055d4000080fa00000006001000fa00000f7800b6
:1055e4001107980022079800330798004407980091
:1055f4005507980066079800770798001e00780002
:105604009e009000010878001e007800ae00900013
:10561400110098001e007800be0090002100980040
:105624001e007800ce009000310098001e00780023
:10563400de009000410098001e007800ee0090000b
:10564400510098001e007800fe0090006100980050
:105654001e0078008ef89700614898001e007800bc
:10566400eef09700714898001e007800aeb89700dd
:10567400010898001e0078009eb897001108980051
:105684001e0078008ef09700415098001e007800ac
:10569400eee89700515098001e007800eeb0970095
:1056a400310898001e007800deb097004108980089
:1056b4001e0078008000eb00510898001e0078005e
:1056c4008000eb00610898001e0078008000eb0069
:1056d400710898001e0078008000eb00011098000b
:1056e4001e0078008000eb00111098001e00780066
:1056f4008000eb00211098001e0078008000eb0071
:10570400311098001e0078008000eb0041109800d2
:105714001e0078008000eb00511098001e007800f5
:105724008000eb00611098001e0078008000eb0000
:10573400711098001e0078008000eb00011898009a
:105744001e0078008000eb00111898001e007800fd
:105754008000eb00211898001e0078001100200042
:10576400311898001e0078008000eb004118980062
:105774001e0078008000eb00511898000080fa00a9
:10578400000006001000fa00881f7800000f78005f
:1057940011079800220798003307980044079800df
:1057a4005607980067079800654f98001e00780018
:1057b400100078008000eb00010878001e009000c3
:1057c40060009000e10f40000e0232002e009000b5
:1057d40060009000e10f40000c0232001e009000b7
:1057e400000890000000e00069003a002e009000dc
:1057f400000890000000e00065003a001e009000e0
:105804000a0807001e009000650807002e0090009b
:10581400df0707001e0078009e00900051089800e2
:105824001e0090009e007800010898001e00900061
:105834008000eb00110898001e0090008000eb002f
:10584400210898001e007800ae00900061089800be
:105854002e0090009e007800010898002e00900011
:105864008000eb00110898002e0090008000eb00ef
:1058740021089800113a8000f00b2000008160009c
:105884006004200071052000237420008049780002
:1058940081497800824978001e00900070009000d1
:1058a4009e009000f1009000110178009e0090008d
:1058b400a14890008180fb00f30320008118dd00e3
:1058c4008180ea0081006100010878001e009000d8
:1058d400700090009e009000f1009000110178008b
:1058e4009e007800b10990009e009000a1489000ad
:1058f4008180fb008118dd0082807000010878003f
:105904001e007800000890009e0078008108900036
:10591400110178009e007800c15090008180fb0046
:10592400f30320008118dd008180ea00810061001a
:10593400010878001e007800000890009e0078009e
:105944008108900011017800ae009000e101900000
:105954009e007800c15090008180fb008118dd001a
:105964008280700001087800113a80000004200051
:1059740001017000600420007105200023742000e0
:105984008049780081497800824978000a0037000c
:105994001e007800d00890001e009000808f5000f8
:1059a4009c013a001e007800e00890002e00900050
:1059b400808f500099013a003e0090000000e00002
:1059c400870032004e0090000000e00084003200a6
:1059d4003e00900060009000e10f40009101320011
:1059e4004e00900060009000e10f40008f013200f3
:1059f4003e009000000890000000e00069003a00ba
:105a04004e009000000890000000e00065003a009d
:105a14003e009000850707003e009000e007070065
:105a24004e0090005a0707001e007800be00900048
:105a3400710898003e0090009e00780001089800cc
:105a44003e0090008000eb00110898003e0090009a
:105a54008000eb00210898001e007800ce00900022
:105a6400011098004e0090009e00780001089800f4
:105a74004e0090008000eb00110898004e0090004a
:105a84008000eb0021089800113a8000f00b200000
:105a94000081600060042000710520002374200050
:105aa4008049780081497800824978003e0090005e
:105ab40070009000be009000f10090001101780089
:105ac400be009000a14890008180fb00f3032000f9
:105ad4008118dd008180ea008100610001087800fe
:105ae4003e00900070009000be009000f100900015
:105af400110178009e007800c1099000be0090005a
:105b0400a14890008180fb008118dd008280700034
:105b1400010878001e007800100890009e007800ac
:105b240091089000110178009e007800d1509000f7
:105b34008180fb00f30320008118dd008180ea00ee
:105b440081006100010878001e00780010089000b0
:105b54009e0078009108900011017800ce0090001a
:105b6400e10190009e007800d15090008180fb00fc
:105b74008118dd008280700001087800113a8000ed
:105b84000004200001017000600420007105200061
:105b94002374200080497800814978008249780084
:105ba4000a0037001e007800f00890003e009000c4
:105bb400808f50001f013a001e0078008010900072
:105bc4004e009000808f50001c013a001e007800a7
:105bd400100078000120200001087800060037003a
:105be4003e0090000000e00016013a004e009000d4
:105bf4000000e00015013a0018c0b3000240220082
:105c040043a724005e009000ee009000d5f2070048
:105c14000000e00001003c000044eb000804e00048
:105c2400040032000040220041a7240050079800dd
:105c34006107980018c0b3000240220043172400f3
:105c44005e009000ee009000c4f207000000e00047
:105c5400010035000044eb000804e00004003200b9
:105c64000040220041172400500798006107980063
:105c740018c0b30002402200432724005e009000b5
:105c8400ee009000b5f207000000e00001003400cf
:105c94000044eb000804e0000f0032001e0078000e
:105ca400400490005e019000ee019000004022004c
:105cb4004197240067f207000200200003f023004c
:105cc40007f20700a9f20700000078000000e900cd
:105cd400000c7800150037001e00780010007800d2
:105ce4009e00780091007800910078000130a000b7
:105cf400010878001e007800400490005e019000c6
:105d0400ee0190000040220041a7240051f2070058
:105d14000200200003f02300f1f1070093f20700d2
:105d2400000078000000e900000c7800ee489000c4
:105d340050c4b30080cf500004003200ee489000fd
:105d440050c6b30080cf500008003a001e0078000f
:105d5400100078009e00780091007800910078008f
:105d64000110a0000108780018003700ee489000e8
:105d7400f0c4b30080cf500004003200ee4890001d
:105d8400f0c6b30080cf500008003a001e0078002f
:105d9400100078009e00780091007800910078004f
:105da4000120a0000108780008003700ee489000a8
:105db400e0c4b30080cf500004003200ee489000ed
:105dc400e0c6b30080cf5000a2003a004eb897005e
:105dd400e20f500008003a001e007800100078001e
:105de4009e00780091007800910078000100a000e6
:105df40001087800030037004eb89700e10f500007
:105e040096003a002eb897000000e00004003a0023
:105e14001e007800a15f2200411898003600370068
:105e24001e007800100090009e0078009100900001
:105e340011017800010022008280700001087800be
:105e44001e007800aeb89700111098001e0078006c
:105e54009eb89700211098001e0078008000eb0087
:105e6400311098001e0078008000eb00411098006b
:105e74001e0078008000eb00511098001e0078008e
:105e8400beb89700311898001e007800c163220044
:105e9400411898001e007800500090009e00780081
:105ea400d1009000110178009e007800e148900034
:105eb4008180fb00130020008118dd008180ea004e
:105ec40081006100010878001e00780060009000e5
:105ed4009e007800e1009000110178009e00780097
:105ee400e14890008180fb00130020008118dd0050
:105ef40082807000010878000eb897000000e0006e
:105f040004003a001e007800e16122005118980054
:105f14002b0037001e0078008eb89700611098009f
:105f24001e007800feb09700711098001e007800e3
:105f34008000eb00011898001e0078008000eb0040
:105f4400111898001e0078008000eb0021189800ba
:105f54001e007800c1722200511898001e007800bb
:105f6400500090009e007800d1009000110178004c
:105f74009e007800f14890008180fb00130020000f
:105f84008118dd008180ea00810061000108780049
:105f94001e007800600090009e007800e1009000f0
:105fa400110178009e007800f14890008180fb0088
:105fb400130020008118dd00828070000108780041
:105fc4001e007800100078009e0078009100780090
:105fd4001101780001002800828070000108780017
:105fe4001e007800100090009e0078009100900040
:105ff40011017800014020008280700001087800bf
:1060040017003700000000001500370000000000f2
:1060140013003700000000001100370000000000ea
:106024000f003700000000000d00370000000000e2
:106034000b003700000000000900370000000000da
:1060440007003700000000000500370000000000d2
:1060540003003700000000000100370000000000ca
:106064004f0478000080fa00000006000200fa00e5
:10607400000f78001e007800100090009e00780049
:106084009100900011017800f1bf2f0081006100a0
:10609400010878001e007800100078008000eb00f2
:1060a400010878001e007800600090009e007800cf
:1060b400e1009000110178009e007800e148900012
:1060c4008180fb00130020008118dd008180ea003c
:1060d40081006100010878001e00780060009000d3
:1060e4009e007800e1009000110178009e00780085
:1060f400f14890008180fb00130020008118dd002e
:106104008180ea0081006100010878001e007800a7
:106114008000eb00411898001e0078008000eb001e
:10612400511898001e007800500890000000e0000c
:106134002f003200113a8000f00b20000081600033
:106144006004200071052000237420008049780039
:1061540081497800824978001e0078005008900038
:10616400700090009e007800d1089000f10090002b
:10617400110178009e007800d1089000a148900099
:106184008180fb00f30320008118dd008180ea0098
:106194008100610001087800113a800000042000a9
:1061a40001017000600420007105200023742000a8
:1061b4008049780081497800824978001e0078007f
:1061c400500890008000eb00010898001e00780041
:1061d40050089000950507001e00780050089000b4
:1061e400ef0507001e0078008000eb0051089800be
:1061f4001e007800600890000000e00028003200d3
:10620400113a8000f00b200000816000600420003f
:1062140071052000237420008049780081497800aa
:10622400824978001e007800000890009e007800e3
:1062340081089000110178009e007800c150900000
:106244008180fb00f30320008118dd008280700050
:1062540001087800113a8000000420000101700058
:106264006004200071052000237420008049780018
:1062740081497800824978001e0078006008900007
:106284008000eb00010898001e0078006008900070
:106294003f0507001e0078008000eb0061089800ad
:1062a4001e007800700890000000e0002f0032000b
:1062b400113a8000f00b200000816000600420008f
:1062c40071052000237420008049780081497800fa
:1062d400824978001e0078007008900070009000d9
:1062e4009e007800f1089000f10090001101780000
:1062f4009e007800f1089000a14890008180fb0086
:10630400f30320008118dd008180ea008100610030
:1063140001087800113a8000000420000101700097
:106324006004200071052000237420008049780057
:1063340081497800824978001e0078007008900036
:106344008000eb00010898001e007800700890009f
:10635400360507001e0078007008900090050700bd
:106364001e0078008000eb00710898001e00780081
:10637400001090000000e00028003200113a800074
:10638400f00b2000008160006004200071052000f3
:10639400237420008049780081497800824978007c
:1063a4001e007800100890009e007800910890006c
:1063b400110178009e007800d15090008180fb008c
:1063c400f30320008118dd0082807000010878004a
:1063d400113a8000000420000101700060042000d4
:1063e40071052000237420008049780081497800d9
:1063f400824978001e007800001090008000eb00b5
:10640400010898001e00780000109000e0040700c6
:106414001e0078008000eb00011098000080fa0054
:10642400000006000400fa00000f780021479800dd
:106434001e007800401890000000e00005003200c3
:106444001e00780040199000ae4090001e007800b5
:10645400020001000080fa00000006000200fa00b9
:10646400000f78001e007800501890000000e00033
:10647400050032001e007800d01890001e0078003d
:10648400010001000100370000c0eb000080fa00a9
:10649400000006000200fa00000f78001e007800d9
:1064a4001000900090007800004020000080600000
:1064b4000000e00008003a001e0078001000900080
:1064c4009e007800910090001101780001402000a6
:1064d40082807000010878000080fa000000060045
:1064e4000400fa00000f7800110798000800370034
:1064f4001e009000104078009e0090008100e8008b
:1065040011079800804078001e007800c5ff07003e
:106514001e009000104078000004e000f4ff3a00f0
:106524001e007800dbff07000080fa000000060070
:106534000a00fa00200798003107980042079800e3
:106544004e0090000000e000870032004e009000f2
:10655400e10f500004003a003e0090008040eb0040
:106564000148780081003700b1c1b3002e009000cb
:10657400acff070071c3b3002e009000a9ff070011
:106584002e009000c3ff0700be0090001107980082
:10659400ce009000010f78000300370000000000d7
:1065a40001003700000000002e009000abff070040
:1065b400be009000804878003e00900010407800b3
:1065c400ed4f50000c003a003e0090008040eb007c
:1065d40001487800a1c0b3002e00900091ff07008d
:1065e400d1c0b3002e0090008eff07002e00900053
:1065f400a8ff07005d0037003e00900010407800bf
:10660400fb4f500016003a00b1c1b3002e009000b9
:1066140084ff070081c3b3002e00900081ff0700b0
:10662400b1c1b3002e0090007eff0700b1c5b300d6
:106634002e0090007bff0700b1c4b3002e00900031
:1066440078ff07002e00900092ff07009e00900044
:1066540031079800ce009000010f78004100370008
:106664003e00900010407800e84f500005003200d2
:106674003e00900090407800f0c7b30080cf5000f7
:106684001a003a00be0090001e009000808f500057
:106694001000360081c0b3002e00900061ff070097
:1066a40001c2b3002e0090005eff070081c0b3005a
:1066b4002e0090005bff07002e00900075ff07007e
:1066c4003e0090000000e900300798001e0fe8002b
:1066d4000500370071c0b3002e00900051ff070081
:1066e4002e0090006bff07001e0037001e0078008c
:1066f400e10f500006003a0071c0b3002e00900074
:1067040048ff07002e00900062ff070015003700c5
:106714003e00900010407800ff4f50009fff36006d
:106724003e00900090407800e0c7b30080cf500056
:106734009cff3e003e0090001040780080407800ae
:106744002e00900037ff07002e00900051ff070035
:106754003e0090000000e800300798001e0fe9009a
:1067640091ff370090ff3700000000000080fa001e
:10677400000006000200fa00000f78001e007800f6
:10678400010207001e007800100890000000e000dd
:10679400050032001e007800900890001e0078006a
:1067a400010001001a0037001e0078002008900044
:1067b4000000e000140032001e0078000008900081
:1067c4000000e0000a0032001e007800a0089000db
:1067d4001e007800010001001e00780000089000ef
:1067e4008000e9001e0078000108980008003700c6
:1067f4001e0078000c0207001e0078008000eb00e9
:1068040021089800020037001e00780006020700e5
:106814000080fa00000006003600f800809fbe00e9
:10682400829fbe00849fbe00869fbe003200f80097
:106834003400f80010002000a0018800002020008f
:10684400900188000000fa0000b62000c9ff07008c
:106854000080fa003400f9003200f9004f03be0052
:106864004f02be004f01be004f00be003600f900cb
:10687400004006003600f800809fbe00829fbe00e4
:10688400849fbe00869fbe003200f8003400f800ea
:1068940010002000a0018800002020009001880042
:1068a4000000fa0060b72000b2ff07000080fa0081
:1068b4003400f9003200f9004f03be004f02be005d
:1068c4004f01be004f00be003600f9000040060034
:1068d4003600f800809fbe00829fbe00849fbe00e9
:1068e400869fbe003200f8003400f800100020003b
:1068f400a001880000202000900188000000fa0018
:10690400c0b820009bff07000080fa003400f900a3
:106914003200f9004f03be004f02be004f01be001b
:106924004f00be003600f900004006003600f800b3
:10693400809fbe00829fbe00849fbe00869fbe00d3
:106944003200f8003400f80010002000a001880094
:1069540000202000900188000000fa0020ba2000e6
:1069640084ff07000080fa003400f9003200f900c7
:106974004f03be004f02be004f01be004f00be00d9
:106984003600f900004006003600f800809fbe0083
:10699400829fbe00849fbe00869fbe003200f80026
:1069a4003400f80010002000a0018800002020001e
:1069b400900188000000fa0080bb20006dff0700f2
:1069c4000080fa003400f9003200f9004f03be00e1
:1069d4004f02be004f01be004f00be003600f9005a
:1069e400004006000000fa00b0002000801f78007c
:1069f4004700200036c0b3004509200044082000a9
:106a040003102000221020004110200000b62000b6
:106a1400330007008f87e900c0002000801f780042
:106a24008003eb0076c0b300450920004408200031
:106a340063102000c21020000111200060b7200064
:106a4400270007008f87e900d0002000801f78000e
:106a54001700200086c0b300450920004408200028
:106a6400a3102000e210200021112000c0b8200053
:106a74001b0007008f87e900e0002000801f7800da
:106a840027002000b6c0b300650920006408200078
:106a940043112000a2112000e111200020ba20009f
:106aa4000f0007008f87e900f0002000801f7800a6
:106ab40037002000c6c0b300650920006408200028
:106ac40083112000c21120000112200080bb20008d
:106ad400030007008f87e9000080fa000000060029
:106ae4001000fa00000f78001107980022079800a0
:106af400330798004407980055079800464f9800bc
:106b0400770798001e0078009e0090000108780026
:106b14001e007800ae009000110098001e0078005e
:106b2400be009000210098001e007800ce00900066
:106b3400310098001e007800de00900041009800ab
:106b44001e007800ce489000214898001e0078006e
:106b5400fe009000610098001e007800ceb89700f7
:106b6400710098001e0078008000eb000108980076
:106b74001e0078008000eb00110898001e007800c9
:106b84008000eb00210898000080fa000000060055
:106b94000600fa00881f7800000f7800120798009a
:106ba4002307980018c0b300d27b230063f82300a6
:106bb4001e009000ae009000eaee07000000e00026
:106bc40001003c000044eb000804e00069003a00c6
:106bd40018c0b300d27b230063e823001e0090009a
:106be400ae009000dfee07000000e00001003c0072
:106bf4000044eb000804e000120032001e0078009c
:106c0400c40007001e007800100078000103200073
:106c1400010878001e007800100490000240220051
:106c2400437724001e009000ae0090003fef070061
:106c3400ceee0700000078000000e900000c7800a8
:106c44004d00370018c0b300d27b230063d023006b
:106c54001e009000ae009000c2ee07000000e000ad
:106c640001003c000044eb000804e0001200320084
:106c74001e007800a70007001e00780010007800ae
:106c840001022000010878001e0078001004900022
:106c940002402200438724001e009000ae009000b2
:106ca40022ef0700b1ee0700000078000000e900c1
:106cb400000c78003000370018c0b300d27b2300ea
:106cc40063b823001e009000ae009000a5ee0700fc
:106cd4000000e00001003c000044eb000804e00078
:106ce400120032001e0078008a0007001e0078009f
:106cf4001000780001012000010878001e007800cf
:106d04001004900002402200439f24001e009000c3
:106d1400ae00900005ef070094ee07000000780035
:106d24000000e900000c7800130037001e00780012
:106d3400780007001e007800100078008000eb0047
:106d4400010878001e007800100490000240220020
:106d540043b724001e009000ae009000f3ee07003d
:106d640082ee0700000078000000e900000c7800c3
:106d740001003700000000004f0478000080fa0092
:106d8400000006000400fa00889fbe001007980067
:106d94001e0090001000780090007800000320008e
:106da400008060004400de00000f78001e007800c0
:106db400c200dd0020c32000008040001004be009b
:106dc4001e00900010009000100078008000eb007e
:106dd40081ee07000200200003f82300c0ed070045
:106de4000001be000800be00d0ee07004f04be0044
:106df4000080fa00000006000600fa00000f780088
:106e040012079800230798001e019000ae0190001d
:106e14000000200001f823000eee07000001be0070
:106e24001e0078005aff07000080fa0000000600e8
:106e34000200fa00000f78001e007800d1ff07005e
:106e44000001be000000200001f8230001ee07004d
:106e54000080fa00000006000400fa00889fbe00cb
:106e6400100798001e009000100078009000780031
:106e740000032000008060004400de00000f780062
:106e84001e007800c200dd0020c320000080400006
:106e94001004be001e009000100090001000780046
:106ea4008000eb004cee07000200200003f82300f2
:106eb4008bed07000001be000800be009bee07003a
:106ec4004f04be000080fa00000006000200fa0031
:106ed400000f78001e0078002b0007001e007800c9
:106ee400200090008000eb00010878001e0078006c
:106ef400100078009e00780091007800110178005d
:106f04000100280082807000010878000080fa00e7
:106f1400000006000200fa00000f78001e0078004e
:106f2400100078009e00780091007800110178002c
:106f3400f1ff270081006100010878000080fa0059
:106f4400000006000200fa00000f78001e0078001e
:106f540030009000900078001e00780020489000d7
:106f64000080fb00120020000010dd0000806000a3
:106f740000f0a7000000ea000000ea004f00de0075
:106f84000080fa00000006000200fa00000f7800fa
:106f94001e007800300090009e007800b100900040
:106fa400110178009e007800a14890008180fb00c8
:106fb400130020008118dd008180ea008100610057
:106fc400010878000080fa00000006000200fa00c0
:106fd400000f78001e007800200090001000780058
:106fe4000080fa00000006000200fa00000f78009a
:106ff4001e007800400090009e007800c1009000c0
:10700400110178009e007800a14890008180fb0067
:10701400130020008118dd008280700001087800d0
:107024000080fa00000006000200fa00000f780059
:107034001e007800400090009e007800c10090007f
:10704400110178009e007800a14890008180fb0027
:10705400130020008118dd008180ea0081006100b6
:10706400010878000080fa00000006000800fa0019
:10707400000f780012079800230798003107980042
:107084001e007800e8ff07001e019000ae0190008a
:107094001e007800befe07001e0078008000eb0092
:1070a400010898001e007800be00900011089800a6
:1070b4001e0078008000eb00210898001e00780074
:1070c400c9ff07001e00780080ff07000080fa0057
:1070d400000006000a00fa00000f7800120798006a
:1070e4002307980031079800440798001e00780091
:1070f400cdff07001e019000ae0190001e00780035
:10710400a3fe07001e007800be009000010898004e
:107114001e0078008000eb00110898001e00780023
:10712400ce009000210898001e007800aeff0700f2
:107134001e00780065ff07000080fa0000000600ca
:107144000200fa00000f78001e007800b6ff070066
:107154001e0078008cff07001e0078006dff0700fa
:107164001e0078008000eb00010898001e007800e3
:107174008000eb00110898001e0078008000eb00ee
:10718400210898000080fa00000006000400fa00bc
:10719400000f7800110798001e0090000000e00026
:1071a4000d0032001e007800100078009e00780068
:1071b40091007800110178009e007800e140900071
:1071c4008180fb00130020008118dd0082807000a4
:1071d400010878000d0037001e00780010007800c8
:1071e4009e00780091007800110178009e007800dc
:1071f400e14090008180fb00130020008118dd0035
:107204008180ea0081006100010878000080fa00b2
:10721400000006000200fa00000f78001e0078004b
:1072240010007800900078001e0078006040900004
:107234000080fb00120020000010dd0000806000d0
:1072440000f0a7000000ea000000ea004f00de00a2
:107254000080fa00000006000200fa00000f780027
:107264001e00780040009000401988002023a800e8
:107274000000000000198000610060000000e000d0
:10728400fcff3200001880000080fa0000000600b5
:107294000200fa00406d2000801f780047012000a2
:1072a4000043eb008082eb0054c0b3008001eb008c
:1072b400822d2000a12d200040802000080107001d
:1072c4008f87e900806d2000801f780097012000df
:1072d40086c0b3008082eb0044c0b3008001eb00a1
:1072e400822d2000a12d2000a0812000fc00070099
:1072f4008f87e900a06c2000801f7800a700200081
:107304000043eb008082eb0044c0b3008001eb003b
:10731400822e2000a12e200000832000f000070010
:107324008f87e900006d2000801f7800170120007e
:1073340086c0b3008082eb0054c0b3008001eb0030
:10734400822e2000a12e200060842000e40007008b
:107354008f87e900c06d2000801f7800d7012000ce
:1073640086c0b300f5002000f4c0b300234e200013
:10737400822c2000a12c2000c0852000d80007000a
:107384008f87e900006d2000801f7800070120002e
:107394000043eb008082eb0034c0b3008001eb00bb
:1073a400822e2000a12e200020872000cc00070080
:1073b4008f87e900206c2000801f780027002000c0
:1073c4000043eb008082eb0084c0b3008001eb003b
:1073d400822d2000a12d200080882000c0000700fd
:1073e4008f87e900c06c2000801f7800c700200050
:1073f4000043eb008082eb00b4c0b3008001eb00db
:10740400822d2000a12d2000e0892000b400070077
:107414008f87e900406c2000801f7800470020001f
:107424000043eb008082eb0094c0b3008001eb00ca
:10743400822d2000a12d2000408b2000a8000700f1
:107444008f87e900206c2000801f7800370020001f
:1074540086c0b3008082eb00a4c0b3008001eb00bf
:10746400822d2000a12d2000a08c20009c0007006c
:107474008f87e900a06c2000801f7800b7002000ef
:1074840086c0b3008082eb000042eb008001eb0079
:10749400822d2000a12d2000008e200090000700e6
:1074a4008f87e900806d2000801f7800870120000d
:1074b4000043eb008082eb0014c0b3008001eb00ba
:1074c400822d2000a12d2000608f20008400070061
:1074d4008f87e900606d2000801f7800770120000d
:1074e40086c0b3008082eb0024c0b3008001eb00af
:1074f400822d2000a12d2000c090200078000700dc
:107504008f87e900606d2000801f780067012000ec
:107514000043eb008082eb0034c0b3008001eb0039
:10752400822d2000a12d2000209220006c00070055
:107534008f87e900006c2000801f78008003eb0037
:107544000043eb008002eb000042eb00234e2000de
:10755400822c2000a12c2000609a200060000700eb
:107564008f87e900006c2000801f7800170020003e
:1075740086c0b3001500200014c0b300234e2000c1
:10758400822c2000a12c2000009920005400070028
:107594008f87e900c06c2000801f7800d70020008e
:1075a40086c0b3002500200024c0b300234e200071
:1075b400822c2000a12c2000a09720004800070066
:1075c4008f87e9000000eb00801f78008083eb00c8
:1075d4000043eb003500200034c0b300234e2000ec
:1075e400822c2000a12c2000409620003c000700a3
:1075f4008f87e900c06d2000801f7800c70120003c
:107604000043eb004500200044c0b300234e20009b
:10761400822c2000a12c2000e094200030000700e0
:107624008f87e900206d2000801f7800270120004b
:107634000043eb005500200054c0b300234e20004b
:10764400822c2000a12c200080932000240007001d
:107654008f87e9000000eb00000f78000700370077
:107664001e0078007600b900800078004080200079
:1076740000804000460007001e0fe8001e0078004e
:10768400ed0f5000f6ff36000000eb00000f78000d
:10769400070037001e0078007600b90080007800eb
:1076a4008093200000804000950007001e0fe80032
:1076b4001e007800e50f5000f6ff3600002e200073
:1076c400001988002223ef0000c42000201988003c
:1076d4002823ef0021e3a8000080fa000000060040
:1076e4001000fa00000f7800110798002207980094
:1076f40033079800044f980055079800464f9800a8
:10770400770798001e0078009e009000010878001a
:107714001e007800ae009000110098001e00780052
:10772400be009000210098001e0078008e48900052
:10773400614098001e007800de009000410098002f
:107744001e007800ce48900021489800fe0090006a
:107754001e007800610098001e007800ceb89700e3
:10776400710098001e0078008000eb00010898006a
:107774001e0078008000eb00110898001e007800bd
:107784008000eb00210898000080fa000000060049
:107794000200fa00000f78001e007800200090001c
:1077a4000000e0000d0032001e0078002000900070
:1077b4009e007800a1009000110178009e007800de
:1077c400e14090008180fb00130020008118dd005f
:1077d4008180ea0081006100010878001e007800c1
:1077e400100090009e007800910090001101780034
:1077f4009e007800e14090008180fb00130020008f
:107804008118dd0082807000010878001e00780075
:107814008000eb00110898001e007800c19023003e
:10782400210898000080fa00000006000200fa0017
:10783400000f78001e007800200090000000e00097
:107844000d0032001e007800200090009e00780099
:10785400a1009000110178009e007800e1409000a2
:107864008180fb00130020008118dd008180ea0084
:1078740081006100010878001e0078001000780083
